{
  "_format": "hh-sol-artifact-1",
  "contractName": "PackPayment",
  "sourceName": "contracts/PackPayment.sol",
  "abi": [
    {
      "inputs": [
        {
          "internalType": "address",
          "name": "_paymentReceiver",
          "type": "address"
        }
      ],
      "stateMutability": "nonpayable",
      "type": "constructor"
    },
    {
      "inputs": [],
      "name": "ERC20PaymentNotSupported",
      "type": "error"
    },
    {
      "inputs": [],
      "name": "ERC20TokenAddressAlreadyExist",
      "type": "error"
    },
    {
      "inputs": [],
      "name": "ERC20TokenNotSupported",
      "type": "error"
    },
    {
      "inputs": [],
      "name": "OutOfStock",
      "type": "error"
    },
    {
      "inputs": [],
      "name": "PackDoesNotExist",
      "type": "error"
    },
    {
      "inputs": [],
      "name": "PaymentFailed",
      "type": "error"
    },
    {
      "inputs": [],
      "name": "PaymentNotEnough",
      "type": "error"
    },
    {
      "anonymous": false,
      "inputs": [
        {
          "indexed": true,
          "internalType": "address",
          "name": "previousOwner",
          "type": "address"
        },
        {
          "indexed": true,
          "internalType": "address",
          "name": "newOwner",
          "type": "address"
        }
      ],
      "name": "OwnershipTransferred",
      "type": "event"
    },
    {
      "anonymous": false,
      "inputs": [
        {
          "indexed": false,
          "internalType": "address",
          "name": "from",
          "type": "address"
        },
        {
          "indexed": false,
          "internalType": "address",
          "name": "tokenAddress",
          "type": "address"
        },
        {
          "indexed": false,
          "internalType": "uint256",
          "name": "amount",
          "type": "uint256"
        },
        {
          "indexed": false,
          "internalType": "string",
          "name": "packName",
          "type": "string"
        },
        {
          "indexed": false,
          "internalType": "string",
          "name": "emberId",
          "type": "string"
        },
        {
          "indexed": false,
          "internalType": "bytes32",
          "name": "hash",
          "type": "bytes32"
        }
      ],
      "name": "PaymentReceived",
      "type": "event"
    },
    {
      "inputs": [
        {
          "internalType": "uint256",
          "name": "_packId",
          "type": "uint256"
        },
        {
          "internalType": "address",
          "name": "_token",
          "type": "address"
        },
        {
          "internalType": "uint256",
          "name": "_price",
          "type": "uint256"
        }
      ],
      "name": "addERC20Payment",
      "outputs": [],
      "stateMutability": "nonpayable",
      "type": "function"
    },
    {
      "inputs": [
        {
          "internalType": "uint256",
          "name": "_packId",
          "type": "uint256"
        },
        {
          "internalType": "address",
          "name": "_token",
          "type": "address"
        },
        {
          "internalType": "string",
          "name": "_emberId",
          "type": "string"
        }
      ],
      "name": "buyPackWithERC20",
      "outputs": [],
      "stateMutability": "nonpayable",
      "type": "function"
    },
    {
      "inputs": [
        {
          "internalType": "uint256",
          "name": "_packId",
          "type": "uint256"
        },
        {
          "internalType": "string",
          "name": "_emberId",
          "type": "string"
        }
      ],
      "name": "buyPackWithNative",
      "outputs": [],
      "stateMutability": "payable",
      "type": "function"
    },
    {
      "inputs": [
        {
          "internalType": "string",
          "name": "_name",
          "type": "string"
        },
        {
          "internalType": "uint256",
          "name": "nativePrice",
          "type": "uint256"
        },
        {
          "internalType": "uint256",
          "name": "_inventory",
          "type": "uint256"
        }
      ],
      "name": "createPack",
      "outputs": [],
      "stateMutability": "nonpayable",
      "type": "function"
    },
    {
      "inputs": [],
      "name": "getAllPacks",
      "outputs": [
        {
          "components": [
            {
              "internalType": "uint256",
              "name": "id",
              "type": "uint256"
            },
            {
              "internalType": "string",
              "name": "name",
              "type": "string"
            },
            {
              "components": [
                {
                  "internalType": "address",
                  "name": "token",
                  "type": "address"
                },
                {
                  "internalType": "uint256",
                  "name": "price",
                  "type": "uint256"
                }
              ],
              "internalType": "struct PackPayment.ERC20Payment[]",
              "name": "erc20Payments",
              "type": "tuple[]"
            },
            {
              "internalType": "uint256",
              "name": "inventory",
              "type": "uint256"
            },
            {
              "internalType": "uint256",
              "name": "nativePrice",
              "type": "uint256"
            }
          ],
          "internalType": "struct PackPayment.Pack[]",
          "name": "",
          "type": "tuple[]"
        }
      ],
      "stateMutability": "view",
      "type": "function"
    },
    {
      "inputs": [],
      "name": "owner",
      "outputs": [
        {
          "internalType": "address",
          "name": "",
          "type": "address"
        }
      ],
      "stateMutability": "view",
      "type": "function"
    },
    {
      "inputs": [],
      "name": "packCounter",
      "outputs": [
        {
          "internalType": "uint256",
          "name": "",
          "type": "uint256"
        }
      ],
      "stateMutability": "view",
      "type": "function"
    },
    {
      "inputs": [
        {
          "internalType": "uint256",
          "name": "",
          "type": "uint256"
        }
      ],
      "name": "packs",
      "outputs": [
        {
          "internalType": "uint256",
          "name": "id",
          "type": "uint256"
        },
        {
          "internalType": "string",
          "name": "name",
          "type": "string"
        },
        {
          "internalType": "uint256",
          "name": "inventory",
          "type": "uint256"
        },
        {
          "internalType": "uint256",
          "name": "nativePrice",
          "type": "uint256"
        }
      ],
      "stateMutability": "view",
      "type": "function"
    },
    {
      "inputs": [],
      "name": "paymentReceiver",
      "outputs": [
        {
          "internalType": "address",
          "name": "",
          "type": "address"
        }
      ],
      "stateMutability": "view",
      "type": "function"
    },
    {
      "inputs": [
        {
          "internalType": "uint256",
          "name": "_packId",
          "type": "uint256"
        },
        {
          "internalType": "address",
          "name": "_token",
          "type": "address"
        }
      ],
      "name": "removeERC20Payment",
      "outputs": [],
      "stateMutability": "nonpayable",
      "type": "function"
    },
    {
      "inputs": [
        {
          "internalType": "uint256",
          "name": "_packId",
          "type": "uint256"
        }
      ],
      "name": "removePack",
      "outputs": [],
      "stateMutability": "nonpayable",
      "type": "function"
    },
    {
      "inputs": [],
      "name": "renounceOwnership",
      "outputs": [],
      "stateMutability": "nonpayable",
      "type": "function"
    },
    {
      "inputs": [
        {
          "internalType": "uint256",
          "name": "_packId",
          "type": "uint256"
        },
        {
          "internalType": "uint256",
          "name": "_price",
          "type": "uint256"
        }
      ],
      "name": "setNativePrice",
      "outputs": [],
      "stateMutability": "nonpayable",
      "type": "function"
    },
    {
      "inputs": [
        {
          "internalType": "address",
          "name": "newOwner",
          "type": "address"
        }
      ],
      "name": "transferOwnership",
      "outputs": [],
      "stateMutability": "nonpayable",
      "type": "function"
    }
  ],
  "bytecode": "0x608060405234801561001057600080fd5b5060405161197c38038061197c83398101604081905261002f916100b6565b61003833610066565b6001808055600380546001600160a01b0319166001600160a01b0393909316929092179091556002556100e6565b600080546001600160a01b038381166001600160a01b0319831681178455604051919092169283917f8be0079c531659141344cd1fd0a4f28419497f9722a3daafe3b4186f6b6457e09190a35050565b6000602082840312156100c857600080fd5b81516001600160a01b03811681146100df57600080fd5b9392505050565b611887806100f56000396000f3fe6080604052600436106100dd5760003560e01c80639bc49e991161007f578063cb37f3b211610059578063cb37f3b214610239578063e43e81df14610259578063f2fde38b14610279578063fcfe26a31461029957600080fd5b80639bc49e99146101c5578063b84c1392146101e5578063c05b724e1461021557600080fd5b806394133ffc116100bb57806394133ffc14610150578063966666ad146101635780639859ad0e146101835780639a89edb5146101a557600080fd5b806342a42e95146100e2578063715018a6146101045780638da5cb5b14610119575b600080fd5b3480156100ee57600080fd5b506101026100fd366004611106565b6102b9565b005b34801561011057600080fd5b506101026103fc565b34801561012557600080fd5b506000546001600160a01b03165b6040516001600160a01b0390911681526020015b60405180910390f35b61010261015e366004611184565b610410565b34801561016f57600080fd5b5061010261017e3660046111d0565b6105b5565b34801561018f57600080fd5b5061019861088a565b6040516101479190611270565b3480156101b157600080fd5b506101026101c0366004611365565b610b4c565b3480156101d157600080fd5b506101026101e0366004611429565b610bb2565b3480156101f157600080fd5b50610205610200366004611455565b610d89565b604051610147949392919061146e565b34801561022157600080fd5b5061022b60025481565b604051908152602001610147565b34801561024557600080fd5b50600354610133906001600160a01b031681565b34801561026557600080fd5b50610102610274366004611455565b610e3a565b34801561028557600080fd5b5061010261029436600461149a565b610e82565b3480156102a557600080fd5b506101026102b43660046114bc565b610f00565b6102c1610f4d565b60008381526004602052604081205490036102ef5760405163bb1d2e2560e01b815260040160405180910390fd5b600083815260046020526040902060020154801561039e5760005b60008581526004602052604090206002015481101561039c57600085815260046020526040902060020180546001600160a01b038616919083908110610352576103526114de565b60009182526020909120600290910201546001600160a01b03160361038a57604051633bc6702360e21b815260040160405180910390fd5b806103948161150a565b91505061030a565b505b506040805180820182526001600160a01b0393841681526020808201938452600095865260048152918520600290810180546001808201835591885293909620915192020180546001600160a01b0319169190931617825551910155565b610404610f4d565b61040e6000610fa7565b565b610418610ff7565b60008381526004602052604081205490036104465760405163bb1d2e2560e01b815260040160405180910390fd5b60008381526004602052604081206003015490036104775760405163ade1cb4160e01b815260040160405180910390fd5b6000838152600460209081526040808320600381015491516104a3934293339360010192909101611557565b604051602081830303815290604052805190602001209050600060046000868152602001908152602001600020600401549050803410156104f757604051635c1c18f560e11b815260040160405180910390fd5b6000858152600460205260408120600301805491610514836115fa565b90915550506003546040516001600160a01b03909116903480156108fc02916000818181858888f19350505050158015610552573d6000803e3d6000fd5b5060008581526004602052604080822090517f78f36ceff36ab5da722b5850d4e47c73eefa435b1e9cb428ee2b36b4d8d395de9261059d9233926001918201908a908a908a9061163a565b60405180910390a150506105b060018055565b505050565b6105bd610ff7565b60008481526004602052604081205490036105eb5760405163bb1d2e2560e01b815260040160405180910390fd5b600084815260046020526040812060030154900361061c5760405163ade1cb4160e01b815260040160405180910390fd5b6000848152600460205260408120600201549081900361064f57604051637bda68f960e11b815260040160405180910390fd5b60008581526004602090815260408083206003810154915161067b934293339360010192909101611557565b60405160208183030381529060405280519060200120905060008060005b8481101561074157600089815260046020526040902060020180546001600160a01b038a169190839081106106d0576106d06114de565b60009182526020909120600290910201546001600160a01b03160361072f57600089815260046020526040902060020180546001945082908110610716576107166114de565b9060005260206000209060020201600101549150610741565b806107398161150a565b915050610699565b508161076057604051637347844f60e01b815260040160405180910390fd5b600088815260046020526040812060030180549161077d836115fa565b90915550506003546040516323b872dd60e01b81523360048201526001600160a01b039182166024820152604481018390526000918916906323b872dd906064016020604051808303816000875af11580156107dd573d6000803e3d6000fd5b505050506040513d601f19601f820116820180604052508101906108019190611708565b905080610821576040516307a4ced160e51b815260040160405180910390fd5b6000898152600460205260409081902090517f78f36ceff36ab5da722b5850d4e47c73eefa435b1e9cb428ee2b36b4d8d395de9161086e9133918c916001918201908d908d908c9061163a565b60405180910390a1505050505061088460018055565b50505050565b6060600060025467ffffffffffffffff8111156108a9576108a961134f565b60405190808252806020026020018201604052801561090c57816020015b6108f96040518060a0016040528060008152602001606081526020016060815260200160008152602001600081525090565b8152602001906001900390816108c75790505b50905060005b600254811015610b465760008181526004602052604090205415610b34576000818152600460205260409020548251839083908110610953576109536114de565b602090810291909101810151919091526000828152600490915260409020600101805461097f90611523565b80601f01602080910402602001604051908101604052809291908181526020018280546109ab90611523565b80156109f85780601f106109cd576101008083540402835291602001916109f8565b820191906000526020600020905b8154815290600101906020018083116109db57829003601f168201915b5050505050828281518110610a0f57610a0f6114de565b6020026020010151602001819052506004600082815260200190815260200160002060030154828281518110610a4757610a476114de565b602002602001015160600181815250506004600082815260200190815260200160002060040154828281518110610a8057610a806114de565b6020026020010151608001818152505060046000828152602001908152602001600020600201805480602002602001604051908101604052809291908181526020016000905b82821015610b0e576000848152602090819020604080518082019091526002850290910180546001600160a01b03168252600190810154828401529083529092019101610ac6565b50505050828281518110610b2457610b246114de565b6020026020010151604001819052505b80610b3e8161150a565b915050610912565b50919050565b610b54610f4d565b6002546000818152600460205260409020908155600101610b758482611778565b506002805460009081526004602081905260408083206003018590558354835282200184905581549190610ba88361150a565b9190505550505050565b610bba610f4d565b6000828152600460205260408120549003610be85760405163bb1d2e2560e01b815260040160405180910390fd5b6000828152600460205260408120600201549003610c1957604051637bda68f960e11b815260040160405180910390fd5b600082815260046020526040812060020154815b81811015610c9d57600085815260046020526040902060020180546001600160a01b038616919083908110610c6457610c646114de565b60009182526020909120600290910201546001600160a01b031603610c8b57809250610c9d565b80610c958161150a565b915050610c2d565b506000848152600460205260409020600201610cba600183611838565b81548110610cca57610cca6114de565b9060005260206000209060020201600460008681526020019081526020016000206002018381548110610cff57610cff6114de565b600091825260208083208454600293840290910180546001600160a01b0319166001600160a01b03909216919091178155600194850154908501558783526004905260409091200190610d529083611838565b81548110610d6257610d626114de565b60009182526020822060029091020180546001600160a01b03191681556001015550505050565b60046020526000908152604090208054600182018054919291610dab90611523565b80601f0160208091040260200160405190810160405280929190818152602001828054610dd790611523565b8015610e245780601f10610df957610100808354040283529160200191610e24565b820191906000526020600020905b815481529060010190602001808311610e0757829003601f168201915b5050505050908060030154908060040154905084565b610e42610f4d565b600081815260046020526040812081815590610e616001830182611050565b610e6f60028301600061108a565b5060006003820181905560049091015550565b610e8a610f4d565b6001600160a01b038116610ef45760405162461bcd60e51b815260206004820152602660248201527f4f776e61626c653a206e6577206f776e657220697320746865207a65726f206160448201526564647265737360d01b60648201526084015b60405180910390fd5b610efd81610fa7565b50565b610f08610f4d565b6000828152600460205260408120549003610f365760405163bb1d2e2560e01b815260040160405180910390fd5b600091825260046020819052604090922090910155565b6000546001600160a01b0316331461040e5760405162461bcd60e51b815260206004820181905260248201527f4f776e61626c653a2063616c6c6572206973206e6f7420746865206f776e65726044820152606401610eeb565b600080546001600160a01b038381166001600160a01b0319831681178455604051919092169283917f8be0079c531659141344cd1fd0a4f28419497f9722a3daafe3b4186f6b6457e09190a35050565b6002600154036110495760405162461bcd60e51b815260206004820152601f60248201527f5265656e7472616e637947756172643a207265656e7472616e742063616c6c006044820152606401610eeb565b6002600155565b50805461105c90611523565b6000825580601f1061106c575050565b601f016020900490600052602060002090810190610efd91906110ab565b5080546000825560020290600052602060002090810190610efd91906110c4565b5b808211156110c057600081556001016110ac565b5090565b5b808211156110c05780546001600160a01b0319168155600060018201556002016110c5565b80356001600160a01b038116811461110157600080fd5b919050565b60008060006060848603121561111b57600080fd5b8335925061112b602085016110ea565b9150604084013590509250925092565b60008083601f84011261114d57600080fd5b50813567ffffffffffffffff81111561116557600080fd5b60208301915083602082850101111561117d57600080fd5b9250929050565b60008060006040848603121561119957600080fd5b83359250602084013567ffffffffffffffff8111156111b757600080fd5b6111c38682870161113b565b9497909650939450505050565b600080600080606085870312156111e657600080fd5b843593506111f6602086016110ea565b9250604085013567ffffffffffffffff81111561121257600080fd5b61121e8782880161113b565b95989497509550505050565b6000815180845260005b8181101561125057602081850181015186830182015201611234565b506000602082860101526020601f19601f83011685010191505092915050565b60006020808301818452808551808352604092508286019150828160051b8701018488016000805b8481101561134057603f198a8503018652825160a08151865289820151818b8801526112c68288018261122a565b838b0151888203898d01528051808352908d019350869250908c01905b8083101561131557835180516001600160a01b031683528d01518d830152928c019260019290920191908b01906112e3565b5060608481015190890152608093840151939097019290925250509487019491870191600101611298565b50919998505050505050505050565b634e487b7160e01b600052604160045260246000fd5b60008060006060848603121561137a57600080fd5b833567ffffffffffffffff8082111561139257600080fd5b818601915086601f8301126113a657600080fd5b8135818111156113b8576113b861134f565b604051601f8201601f19908116603f011681019083821181831017156113e0576113e061134f565b816040528281528960208487010111156113f957600080fd5b82602086016020830137600060208483010152809750505050505060208401359150604084013590509250925092565b6000806040838503121561143c57600080fd5b8235915061144c602084016110ea565b90509250929050565b60006020828403121561146757600080fd5b5035919050565b848152608060208201526000611487608083018661122a565b6040830194909452506060015292915050565b6000602082840312156114ac57600080fd5b6114b5826110ea565b9392505050565b600080604083850312156114cf57600080fd5b50508035926020909101359150565b634e487b7160e01b600052603260045260246000fd5b634e487b7160e01b600052601160045260246000fd5b60006001820161151c5761151c6114f4565b5060010190565b600181811c9082168061153757607f821691505b602082108103610b4657634e487b7160e01b600052602260045260246000fd5b848152600060206bffffffffffffffffffffffff198660601b168184015260346000865461158481611523565b6001828116801561159c57600181146115b5576115e5565b60ff1984168987015282151583028901860194506115e5565b8a6000528660002060005b848110156115db5781548b82018901529083019088016115c0565b505085838a010194505b50505095815291909101979650505050505050565b600081611609576116096114f4565b506000190190565b81835281816020850137506000828201602090810191909152601f909101601f19169091010190565b6001600160a01b03888116825287166020808301919091526040820187905260c060608301528554600091829161167081611523565b8060c087015260e060018084166000811461169257600181146116ac576116da565b60ff1985168984015283151560051b8901830196506116da565b8c6000528560002060005b858110156116d25781548b82018601529083019087016116b7565b8a0184019750505b50505050505082810360808401526116f3818688611611565b9150508260a083015298975050505050505050565b60006020828403121561171a57600080fd5b815180151581146114b557600080fd5b601f8211156105b057600081815260208120601f850160051c810160208610156117515750805b601f850160051c820191505b818110156117705782815560010161175d565b505050505050565b815167ffffffffffffffff8111156117925761179261134f565b6117a6816117a08454611523565b8461172a565b602080601f8311600181146117db57600084156117c35750858301515b600019600386901b1c1916600185901b178555611770565b600085815260208120601f198616915b8281101561180a578886015182559484019460019091019084016117eb565b50858210156118285787850151600019600388901b60f8161c191681555b5050505050600190811b01905550565b8181038181111561184b5761184b6114f4565b9291505056fea2646970667358221220ac9a6f9b5e81ae579e99b7302eb62850d0366a280c83855814217545d5d34d2b64736f6c63430008130033",
  "linkReferences": {},
  "deployedLinkReferences": {}
}