{
	"_format": "hh-sol-artifact-1",
	"contractName": "PackPayment",
	"sourceName": "contracts/PackPayment.sol",
	"abi": [
		{
			"inputs": [
				{
					"internalType": "address",
					"name": "_paymentReceiver",
					"type": "address"
				}
			],
			"stateMutability": "nonpayable",
			"type": "constructor"
		},
		{
			"inputs": [],
			"name": "ERC20PaymentNotSupported",
			"type": "error"
		},
		{
			"inputs": [],
			"name": "ERC20TokenAddressAlreadyExist",
			"type": "error"
		},
		{
			"inputs": [],
			"name": "ERC20TokenNotSupported",
			"type": "error"
		},
		{
			"inputs": [],
			"name": "OutOfStock",
			"type": "error"
		},
		{
			"inputs": [],
			"name": "PackDoesNotExist",
			"type": "error"
		},
		{
			"inputs": [],
			"name": "PaymentFailed",
			"type": "error"
		},
		{
			"inputs": [],
			"name": "PaymentNotEnough",
			"type": "error"
		},
		{
			"anonymous": false,
			"inputs": [
				{
					"indexed": true,
					"internalType": "address",
					"name": "previousOwner",
					"type": "address"
				},
				{
					"indexed": true,
					"internalType": "address",
					"name": "newOwner",
					"type": "address"
				}
			],
			"name": "OwnershipTransferred",
			"type": "event"
		},
		{
			"anonymous": false,
			"inputs": [
				{
					"indexed": false,
					"internalType": "address",
					"name": "from",
					"type": "address"
				},
				{
					"indexed": false,
					"internalType": "address",
					"name": "tokenAddress",
					"type": "address"
				},
				{
					"indexed": false,
					"internalType": "uint256",
					"name": "amount",
					"type": "uint256"
				},
				{
					"indexed": false,
					"internalType": "string",
					"name": "packName",
					"type": "string"
				},
				{
					"indexed": false,
					"internalType": "string",
					"name": "emberId",
					"type": "string"
				},
				{
					"indexed": false,
					"internalType": "string",
					"name": "gameId",
					"type": "string"
				},
				{
					"indexed": false,
					"internalType": "bytes32",
					"name": "hash",
					"type": "bytes32"
				}
			],
			"name": "PaymentReceived",
			"type": "event"
		},
		{
			"inputs": [
				{
					"internalType": "uint256",
					"name": "_packId",
					"type": "uint256"
				},
				{
					"internalType": "address",
					"name": "_token",
					"type": "address"
				},
				{
					"internalType": "uint256",
					"name": "_price",
					"type": "uint256"
				}
			],
			"name": "addERC20Payment",
			"outputs": [],
			"stateMutability": "nonpayable",
			"type": "function"
		},
		{
			"inputs": [
				{
					"internalType": "uint256",
					"name": "_packId",
					"type": "uint256"
				},
				{
					"internalType": "address",
					"name": "_token",
					"type": "address"
				},
				{
					"internalType": "string",
					"name": "_emberId",
					"type": "string"
				},
				{
					"internalType": "string",
					"name": "_gameId",
					"type": "string"
				},
				{
					"internalType": "uint256",
					"name": "_amount",
					"type": "uint256"
				}
			],
			"name": "buyPackWithERC20",
			"outputs": [],
			"stateMutability": "nonpayable",
			"type": "function"
		},
		{
			"inputs": [
				{
					"internalType": "uint256",
					"name": "_packId",
					"type": "uint256"
				},
				{
					"internalType": "string",
					"name": "_emberId",
					"type": "string"
				},
				{
					"internalType": "string",
					"name": "_gameId",
					"type": "string"
				},
				{
					"internalType": "uint256",
					"name": "_amount",
					"type": "uint256"
				}
			],
			"name": "buyPackWithNative",
			"outputs": [],
			"stateMutability": "payable",
			"type": "function"
		},
		{
			"inputs": [
				{
					"internalType": "string",
					"name": "_name",
					"type": "string"
				},
				{
					"internalType": "uint256",
					"name": "nativePrice",
					"type": "uint256"
				},
				{
					"internalType": "uint256",
					"name": "_inventory",
					"type": "uint256"
				}
			],
			"name": "createPack",
			"outputs": [],
			"stateMutability": "nonpayable",
			"type": "function"
		},
		{
			"inputs": [],
			"name": "getAllPacks",
			"outputs": [
				{
					"components": [
						{
							"internalType": "uint256",
							"name": "id",
							"type": "uint256"
						},
						{
							"internalType": "string",
							"name": "name",
							"type": "string"
						},
						{
							"components": [
								{
									"internalType": "address",
									"name": "token",
									"type": "address"
								},
								{
									"internalType": "uint256",
									"name": "price",
									"type": "uint256"
								}
							],
							"internalType": "struct PackPayment.ERC20Payment[]",
							"name": "erc20Payments",
							"type": "tuple[]"
						},
						{
							"internalType": "uint256",
							"name": "inventory",
							"type": "uint256"
						},
						{
							"internalType": "uint256",
							"name": "nativePrice",
							"type": "uint256"
						}
					],
					"internalType": "struct PackPayment.Pack[]",
					"name": "",
					"type": "tuple[]"
				}
			],
			"stateMutability": "view",
			"type": "function"
		},
		{
			"inputs": [],
			"name": "owner",
			"outputs": [
				{
					"internalType": "address",
					"name": "",
					"type": "address"
				}
			],
			"stateMutability": "view",
			"type": "function"
		},
		{
			"inputs": [],
			"name": "packCounter",
			"outputs": [
				{
					"internalType": "uint256",
					"name": "",
					"type": "uint256"
				}
			],
			"stateMutability": "view",
			"type": "function"
		},
		{
			"inputs": [
				{
					"internalType": "uint256",
					"name": "",
					"type": "uint256"
				}
			],
			"name": "packs",
			"outputs": [
				{
					"internalType": "uint256",
					"name": "id",
					"type": "uint256"
				},
				{
					"internalType": "string",
					"name": "name",
					"type": "string"
				},
				{
					"internalType": "uint256",
					"name": "inventory",
					"type": "uint256"
				},
				{
					"internalType": "uint256",
					"name": "nativePrice",
					"type": "uint256"
				}
			],
			"stateMutability": "view",
			"type": "function"
		},
		{
			"inputs": [],
			"name": "paymentReceiver",
			"outputs": [
				{
					"internalType": "address",
					"name": "",
					"type": "address"
				}
			],
			"stateMutability": "view",
			"type": "function"
		},
		{
			"inputs": [
				{
					"internalType": "uint256",
					"name": "_packId",
					"type": "uint256"
				},
				{
					"internalType": "address",
					"name": "_token",
					"type": "address"
				}
			],
			"name": "removeERC20Payment",
			"outputs": [],
			"stateMutability": "nonpayable",
			"type": "function"
		},
		{
			"inputs": [
				{
					"internalType": "uint256",
					"name": "_packId",
					"type": "uint256"
				}
			],
			"name": "removePack",
			"outputs": [],
			"stateMutability": "nonpayable",
			"type": "function"
		},
		{
			"inputs": [],
			"name": "renounceOwnership",
			"outputs": [],
			"stateMutability": "nonpayable",
			"type": "function"
		},
		{
			"inputs": [
				{
					"internalType": "uint256",
					"name": "_packId",
					"type": "uint256"
				},
				{
					"internalType": "uint256",
					"name": "_price",
					"type": "uint256"
				}
			],
			"name": "setNativePrice",
			"outputs": [],
			"stateMutability": "nonpayable",
			"type": "function"
		},
		{
			"inputs": [
				{
					"internalType": "address",
					"name": "_paymentReceiver",
					"type": "address"
				}
			],
			"name": "setPaymentReceiver",
			"outputs": [],
			"stateMutability": "nonpayable",
			"type": "function"
		},
		{
			"inputs": [
				{
					"internalType": "address",
					"name": "newOwner",
					"type": "address"
				}
			],
			"name": "transferOwnership",
			"outputs": [],
			"stateMutability": "nonpayable",
			"type": "function"
		}
	],
	"bytecode": "0x608060405234801561001057600080fd5b5060405162001c8e38038062001c8e833981016040819052610031916100b8565b61003a33610068565b6001808055600380546001600160a01b0319166001600160a01b0393909316929092179091556002556100e8565b600080546001600160a01b038381166001600160a01b0319831681178455604051919092169283917f8be0079c531659141344cd1fd0a4f28419497f9722a3daafe3b4186f6b6457e09190a35050565b6000602082840312156100ca57600080fd5b81516001600160a01b03811681146100e157600080fd5b9392505050565b611b9680620000f86000396000f3fe6080604052600436106100e85760003560e01c80639a89edb51161008a578063cb37f3b211610059578063cb37f3b214610264578063e43e81df14610284578063f2fde38b146102a4578063fcfe26a3146102c457600080fd5b80639a89edb5146101d05780639bc49e99146101f0578063b84c139214610210578063c05b724e1461024057600080fd5b806365ebf99a116100c657806365ebf99a14610142578063715018a6146101625780638da5cb5b146101775780639859ad0e146101ae57600080fd5b80630a2d07e4146100ed57806342a42e95146101025780634c46ee1e14610122575b600080fd5b6101006100fb366004611328565b6102e4565b005b34801561010e57600080fd5b5061010061011d3660046113c6565b610502565b34801561012e57600080fd5b5061010061013d3660046113fb565b610645565b34801561014e57600080fd5b5061010061015d36600461148e565b610a41565b34801561016e57600080fd5b50610100610a6b565b34801561018357600080fd5b506000546001600160a01b03165b6040516001600160a01b0390911681526020015b60405180910390f35b3480156101ba57600080fd5b506101c3610a7f565b6040516101a59190611500565b3480156101dc57600080fd5b506101006101eb3660046115f5565b610d41565b3480156101fc57600080fd5b5061010061020b3660046116b9565b610da7565b34801561021c57600080fd5b5061023061022b3660046116e5565b610f7e565b6040516101a594939291906116fe565b34801561024c57600080fd5b5061025660025481565b6040519081526020016101a5565b34801561027057600080fd5b50600354610191906001600160a01b031681565b34801561029057600080fd5b5061010061029f3660046116e5565b61102f565b3480156102b057600080fd5b506101006102bf36600461148e565b611077565b3480156102d057600080fd5b506101006102df36600461172a565b6110f5565b6102ec611142565b600086815260046020526040812054900361031a5760405163bb1d2e2560e01b815260040160405180910390fd5b600086815260046020526040812060030154900361034b5760405163ade1cb4160e01b815260040160405180910390fd5b60008681526004602052604090206003015481111561037d5760405163ade1cb4160e01b815260040160405180910390fd5b60008681526004602081905260408220015490036103ae57604051637bda68f960e11b815260040160405180910390fd5b6000868152600460209081526040808320600381015491516103da934293339360010192909101611780565b604051602081830303815290604052805190602001209050600082600460008a8152602001908152602001600020600401546104169190611839565b90508034101561043957604051635c1c18f560e11b815260040160405180910390fd5b6000888152600460205260408120600301805485929061045a908490611856565b90915550506003546040516001600160a01b03909116903480156108fc02916000818181858888f19350505050158015610498573d6000803e3d6000fd5b5060008881526004602052604080822090517fd36a25e9628142902ec40a93d0fe26744e4670fab03870dac86dbe476d4c97c9926104e79233928891600101908d908d908d908d908c90611892565b60405180910390a150506104fa60018055565b505050505050565b61050a61119b565b60008381526004602052604081205490036105385760405163bb1d2e2560e01b815260040160405180910390fd5b60008381526004602052604090206002015480156105e75760005b6000858152600460205260409020600201548110156105e557600085815260046020526040902060020180546001600160a01b03861691908390811061059b5761059b611978565b60009182526020909120600290910201546001600160a01b0316036105d357604051633bc6702360e21b815260040160405180910390fd5b806105dd8161198e565b915050610553565b505b506040805180820182526001600160a01b0393841681526020808201938452600095865260048152918520600290810180546001808201835591885293909620915192020180546001600160a01b0319169190931617825551910155565b61064d611142565b6000600460008981526020019081526020016000206040518060a0016040529081600082015481526020016001820180546106879061174c565b80601f01602080910402602001604051908101604052809291908181526020018280546106b39061174c565b80156107005780601f106106d557610100808354040283529160200191610700565b820191906000526020600020905b8154815290600101906020018083116106e357829003601f168201915b5050505050815260200160028201805480602002602001604051908101604052809291908181526020016000905b82821015610776576000848152602090819020604080518082019091526002850290910180546001600160a01b0316825260019081015482840152908352909201910161072e565b50505050815260200160038201548152602001600482015481525050905080600001516000036107b95760405163bb1d2e2560e01b815260040160405180910390fd5b80606001516000036107de5760405163ade1cb4160e01b815260040160405180910390fd5b81816060015110156108035760405163ade1cb4160e01b815260040160405180910390fd5b80604001515160000361082957604051637bda68f960e11b815260040160405180910390fd5b600042338360200151846060015160405160200161084a94939291906119a7565b60405160208183030381529060405280519060200120905060008060005b8460400151518110156108ee578a6001600160a01b03168560400151828151811061089557610895611978565b6020026020010151600001516001600160a01b0316036108dc5760019250846040015181815181106108c9576108c9611978565b60200260200101516020015191506108ee565b806108e68161198e565b915050610868565b508161090d57604051637347844f60e01b815260040160405180910390fd5b848460600181815161091f9190611856565b9052506003546000906001600160a01b03808d16916323b872dd913391166109478a87611839565b6040516001600160e01b031960e086901b1681526001600160a01b03938416600482015292909116602483015260448201526064016020604051808303816000875af115801561099b573d6000803e3d6000fd5b505050506040513d601f19601f820116820180604052508101906109bf91906119ed565b9050806109df576040516307a4ced160e51b815260040160405180910390fd5b7fd36a25e9628142902ec40a93d0fe26744e4670fab03870dac86dbe476d4c97c9338c8888602001518e8e8e8e8c604051610a2299989796959493929190611a0f565b60405180910390a15050505050610a3860018055565b50505050505050565b610a4961119b565b600380546001600160a01b0319166001600160a01b0392909216919091179055565b610a7361119b565b610a7d60006111f5565b565b6060600060025467ffffffffffffffff811115610a9e57610a9e6115df565b604051908082528060200260200182016040528015610b0157816020015b610aee6040518060a0016040528060008152602001606081526020016060815260200160008152602001600081525090565b815260200190600190039081610abc5790505b50905060005b600254811015610d3b5760008181526004602052604090205415610d29576000818152600460205260409020548251839083908110610b4857610b48611978565b6020908102919091018101519190915260008281526004909152604090206001018054610b749061174c565b80601f0160208091040260200160405190810160405280929190818152602001828054610ba09061174c565b8015610bed5780601f10610bc257610100808354040283529160200191610bed565b820191906000526020600020905b815481529060010190602001808311610bd057829003601f168201915b5050505050828281518110610c0457610c04611978565b6020026020010151602001819052506004600082815260200190815260200160002060030154828281518110610c3c57610c3c611978565b602002602001015160600181815250506004600082815260200190815260200160002060040154828281518110610c7557610c75611978565b6020026020010151608001818152505060046000828152602001908152602001600020600201805480602002602001604051908101604052809291908181526020016000905b82821015610d03576000848152602090819020604080518082019091526002850290910180546001600160a01b03168252600190810154828401529083529092019101610cbb565b50505050828281518110610d1957610d19611978565b6020026020010151604001819052505b80610d338161198e565b915050610b07565b50919050565b610d4961119b565b6002546000818152600460205260409020908155600101610d6a8482611aa0565b506002805460009081526004602081905260408083206003018590558354835282200184905581549190610d9d8361198e565b9190505550505050565b610daf61119b565b6000828152600460205260408120549003610ddd5760405163bb1d2e2560e01b815260040160405180910390fd5b6000828152600460205260408120600201549003610e0e57604051637bda68f960e11b815260040160405180910390fd5b600082815260046020526040812060020154815b81811015610e9257600085815260046020526040902060020180546001600160a01b038616919083908110610e5957610e59611978565b60009182526020909120600290910201546001600160a01b031603610e8057809250610e92565b80610e8a8161198e565b915050610e22565b506000848152600460205260409020600201610eaf600183611856565b81548110610ebf57610ebf611978565b9060005260206000209060020201600460008681526020019081526020016000206002018381548110610ef457610ef4611978565b600091825260208083208454600293840290910180546001600160a01b0319166001600160a01b03909216919091178155600194850154908501558783526004905260409091200190610f479083611856565b81548110610f5757610f57611978565b60009182526020822060029091020180546001600160a01b03191681556001015550505050565b60046020526000908152604090208054600182018054919291610fa09061174c565b80601f0160208091040260200160405190810160405280929190818152602001828054610fcc9061174c565b80156110195780601f10610fee57610100808354040283529160200191611019565b820191906000526020600020905b815481529060010190602001808311610ffc57829003601f168201915b5050505050908060030154908060040154905084565b61103761119b565b6000818152600460205260408120818155906110566001830182611245565b61106460028301600061127f565b5060006003820181905560049091015550565b61107f61119b565b6001600160a01b0381166110e95760405162461bcd60e51b815260206004820152602660248201527f4f776e61626c653a206e6577206f776e657220697320746865207a65726f206160448201526564647265737360d01b60648201526084015b60405180910390fd5b6110f2816111f5565b50565b6110fd61119b565b600082815260046020526040812054900361112b5760405163bb1d2e2560e01b815260040160405180910390fd5b600091825260046020819052604090922090910155565b6002600154036111945760405162461bcd60e51b815260206004820152601f60248201527f5265656e7472616e637947756172643a207265656e7472616e742063616c6c0060448201526064016110e0565b6002600155565b6000546001600160a01b03163314610a7d5760405162461bcd60e51b815260206004820181905260248201527f4f776e61626c653a2063616c6c6572206973206e6f7420746865206f776e657260448201526064016110e0565b600080546001600160a01b038381166001600160a01b0319831681178455604051919092169283917f8be0079c531659141344cd1fd0a4f28419497f9722a3daafe3b4186f6b6457e09190a35050565b5080546112519061174c565b6000825580601f10611261575050565b601f0160209004906000526020600020908101906110f291906112a0565b50805460008255600202906000526020600020908101906110f291906112b9565b5b808211156112b557600081556001016112a1565b5090565b5b808211156112b55780546001600160a01b0319168155600060018201556002016112ba565b60008083601f8401126112f157600080fd5b50813567ffffffffffffffff81111561130957600080fd5b60208301915083602082850101111561132157600080fd5b9250929050565b6000806000806000806080878903121561134157600080fd5b86359550602087013567ffffffffffffffff8082111561136057600080fd5b61136c8a838b016112df565b9097509550604089013591508082111561138557600080fd5b5061139289828a016112df565b979a9699509497949695606090950135949350505050565b80356001600160a01b03811681146113c157600080fd5b919050565b6000806000606084860312156113db57600080fd5b833592506113eb602085016113aa565b9150604084013590509250925092565b600080600080600080600060a0888a03121561141657600080fd5b87359650611426602089016113aa565b9550604088013567ffffffffffffffff8082111561144357600080fd5b61144f8b838c016112df565b909750955060608a013591508082111561146857600080fd5b506114758a828b016112df565b989b979a50959894979596608090950135949350505050565b6000602082840312156114a057600080fd5b6114a9826113aa565b9392505050565b60005b838110156114cb5781810151838201526020016114b3565b50506000910152565b600081518084526114ec8160208601602086016114b0565b601f01601f19169290920160200192915050565b60006020808301818452808551808352604092508286019150828160051b8701018488016000805b848110156115d057603f198a8503018652825160a08151865289820151818b880152611556828801826114d4565b838b0151888203898d01528051808352908d019350869250908c01905b808310156115a557835180516001600160a01b031683528d01518d830152928c019260019290920191908b0190611573565b5060608481015190890152608093840151939097019290925250509487019491870191600101611528565b50919998505050505050505050565b634e487b7160e01b600052604160045260246000fd5b60008060006060848603121561160a57600080fd5b833567ffffffffffffffff8082111561162257600080fd5b818601915086601f83011261163657600080fd5b813581811115611648576116486115df565b604051601f8201601f19908116603f01168101908382118183101715611670576116706115df565b8160405282815289602084870101111561168957600080fd5b82602086016020830137600060208483010152809750505050505060208401359150604084013590509250925092565b600080604083850312156116cc57600080fd5b823591506116dc602084016113aa565b90509250929050565b6000602082840312156116f757600080fd5b5035919050565b84815260806020820152600061171760808301866114d4565b6040830194909452506060015292915050565b6000806040838503121561173d57600080fd5b50508035926020909101359150565b600181811c9082168061176057607f821691505b602082108103610d3b57634e487b7160e01b600052602260045260246000fd5b848152600060206bffffffffffffffffffffffff198660601b16818401526034600086546117ad8161174c565b600182811680156117c557600181146117de5761180e565b60ff19841689870152821515830289018601945061180e565b8a6000528660002060005b848110156118045781548b82018901529083019088016117e9565b505085838a010194505b50505095815291909101979650505050505050565b634e487b7160e01b600052601160045260246000fd5b808202811582820484141761185057611850611823565b92915050565b8181038181111561185057611850611823565b81835281816020850137506000828201602090810191909152601f909101601f19169091010190565b6001600160a01b038a8116825289166020808301919091526040820189905260e06060830152875460009182916118c88161174c565b8060e08701526101006001808416600081146118eb576001811461190557611933565b60ff1985168984015283151560051b890183019650611933565b8e6000528560002060005b8581101561192b5781548b8201860152908301908701611910565b8a0184019750505b505050505050828103608084015261194c81888a611869565b905082810360a0840152611961818688611869565b9150508260c08301529a9950505050505050505050565b634e487b7160e01b600052603260045260246000fd5b6000600182016119a0576119a0611823565b5060010190565b8481526bffffffffffffffffffffffff198460601b166020820152600083516119d78160348501602088016114b0565b6034920191820192909252605401949350505050565b6000602082840312156119ff57600080fd5b815180151581146114a957600080fd5b6001600160a01b038a81168252891660208201526040810188905260e060608201819052600090611a42908301896114d4565b828103608084015261194c81888a611869565b601f821115611a9b57600081815260208120601f850160051c81016020861015611a7c5750805b601f850160051c820191505b818110156104fa57828155600101611a88565b505050565b815167ffffffffffffffff811115611aba57611aba6115df565b611ace81611ac8845461174c565b84611a55565b602080601f831160018114611b035760008415611aeb5750858301515b600019600386901b1c1916600185901b1785556104fa565b600085815260208120601f198616915b82811015611b3257888601518255948401946001909101908401611b13565b5085821015611b505787850151600019600388901b60f8161c191681555b5050505050600190811b0190555056fea264697066735822122013ed2a8835e10e1688f93a846a05f33eeac74bf25cd982fc0687d695c7b3852964736f6c63430008130033",
	"linkReferences": {},
	"deployedLinkReferences": {}
}