{
	"_format": "hh-sol-artifact-1",
	"contractName": "PackPayment",
	"sourceName": "contracts/PackPayment.sol",
	"abi": [
		{
			"inputs": [
				{
					"internalType": "address",
					"name": "_paymentReceiver",
					"type": "address"
				}
			],
			"stateMutability": "nonpayable",
			"type": "constructor"
		},
		{
			"inputs": [],
			"name": "ERC20PaymentNotSupported",
			"type": "error"
		},
		{
			"inputs": [],
			"name": "ERC20TokenAddressAlreadyExist",
			"type": "error"
		},
		{
			"inputs": [],
			"name": "ERC20TokenNotSupported",
			"type": "error"
		},
		{
			"inputs": [],
			"name": "OutOfStock",
			"type": "error"
		},
		{
			"inputs": [],
			"name": "PackDoesNotExist",
			"type": "error"
		},
		{
			"inputs": [],
			"name": "PaymentFailed",
			"type": "error"
		},
		{
			"inputs": [],
			"name": "PaymentNotEnough",
			"type": "error"
		},
		{
			"anonymous": false,
			"inputs": [
				{
					"indexed": true,
					"internalType": "address",
					"name": "previousOwner",
					"type": "address"
				},
				{
					"indexed": true,
					"internalType": "address",
					"name": "newOwner",
					"type": "address"
				}
			],
			"name": "OwnershipTransferred",
			"type": "event"
		},
		{
			"anonymous": false,
			"inputs": [
				{
					"indexed": false,
					"internalType": "address",
					"name": "from",
					"type": "address"
				},
				{
					"indexed": false,
					"internalType": "address",
					"name": "tokenAddress",
					"type": "address"
				},
				{
					"indexed": false,
					"internalType": "uint256",
					"name": "amount",
					"type": "uint256"
				},
				{
					"indexed": false,
					"internalType": "string",
					"name": "packName",
					"type": "string"
				},
				{
					"indexed": false,
					"internalType": "string",
					"name": "emberId",
					"type": "string"
				},
				{
					"indexed": false,
					"internalType": "string",
					"name": "gameId",
					"type": "string"
				},
				{
					"indexed": false,
					"internalType": "bytes32",
					"name": "hash",
					"type": "bytes32"
				}
			],
			"name": "PaymentReceived",
			"type": "event"
		},
		{
			"inputs": [
				{
					"internalType": "uint256",
					"name": "_packId",
					"type": "uint256"
				},
				{
					"internalType": "address",
					"name": "_token",
					"type": "address"
				},
				{
					"internalType": "uint256",
					"name": "_price",
					"type": "uint256"
				}
			],
			"name": "addERC20Payment",
			"outputs": [],
			"stateMutability": "nonpayable",
			"type": "function"
		},
		{
			"inputs": [
				{
					"internalType": "uint256",
					"name": "_packId",
					"type": "uint256"
				},
				{
					"internalType": "address",
					"name": "_token",
					"type": "address"
				},
				{
					"internalType": "string",
					"name": "_emberId",
					"type": "string"
				},
				{
					"internalType": "string",
					"name": "_gameId",
					"type": "string"
				},
				{
					"internalType": "uint256",
					"name": "_amount",
					"type": "uint256"
				}
			],
			"name": "buyPackWithERC20",
			"outputs": [],
			"stateMutability": "nonpayable",
			"type": "function"
		},
		{
			"inputs": [
				{
					"internalType": "uint256",
					"name": "_packId",
					"type": "uint256"
				},
				{
					"internalType": "string",
					"name": "_emberId",
					"type": "string"
				},
				{
					"internalType": "string",
					"name": "_gameId",
					"type": "string"
				},
				{
					"internalType": "uint256",
					"name": "_amount",
					"type": "uint256"
				}
			],
			"name": "buyPackWithNative",
			"outputs": [],
			"stateMutability": "payable",
			"type": "function"
		},
		{
			"inputs": [
				{
					"internalType": "string",
					"name": "_name",
					"type": "string"
				},
				{
					"internalType": "uint256",
					"name": "nativePrice",
					"type": "uint256"
				},
				{
					"internalType": "uint256",
					"name": "_inventory",
					"type": "uint256"
				}
			],
			"name": "createPack",
			"outputs": [],
			"stateMutability": "nonpayable",
			"type": "function"
		},
		{
			"inputs": [],
			"name": "getAllPacks",
			"outputs": [
				{
					"components": [
						{
							"internalType": "uint256",
							"name": "id",
							"type": "uint256"
						},
						{
							"internalType": "string",
							"name": "name",
							"type": "string"
						},
						{
							"components": [
								{
									"internalType": "address",
									"name": "token",
									"type": "address"
								},
								{
									"internalType": "uint256",
									"name": "price",
									"type": "uint256"
								}
							],
							"internalType": "struct PackPayment.ERC20Payment[]",
							"name": "erc20Payments",
							"type": "tuple[]"
						},
						{
							"internalType": "uint256",
							"name": "inventory",
							"type": "uint256"
						},
						{
							"internalType": "uint256",
							"name": "nativePrice",
							"type": "uint256"
						}
					],
					"internalType": "struct PackPayment.Pack[]",
					"name": "",
					"type": "tuple[]"
				}
			],
			"stateMutability": "view",
			"type": "function"
		},
		{
			"inputs": [],
			"name": "owner",
			"outputs": [
				{
					"internalType": "address",
					"name": "",
					"type": "address"
				}
			],
			"stateMutability": "view",
			"type": "function"
		},
		{
			"inputs": [],
			"name": "packCounter",
			"outputs": [
				{
					"internalType": "uint256",
					"name": "",
					"type": "uint256"
				}
			],
			"stateMutability": "view",
			"type": "function"
		},
		{
			"inputs": [
				{
					"internalType": "uint256",
					"name": "",
					"type": "uint256"
				}
			],
			"name": "packs",
			"outputs": [
				{
					"internalType": "uint256",
					"name": "id",
					"type": "uint256"
				},
				{
					"internalType": "string",
					"name": "name",
					"type": "string"
				},
				{
					"internalType": "uint256",
					"name": "inventory",
					"type": "uint256"
				},
				{
					"internalType": "uint256",
					"name": "nativePrice",
					"type": "uint256"
				}
			],
			"stateMutability": "view",
			"type": "function"
		},
		{
			"inputs": [],
			"name": "paymentReceiver",
			"outputs": [
				{
					"internalType": "address",
					"name": "",
					"type": "address"
				}
			],
			"stateMutability": "view",
			"type": "function"
		},
		{
			"inputs": [
				{
					"internalType": "uint256",
					"name": "_packId",
					"type": "uint256"
				},
				{
					"internalType": "address",
					"name": "_token",
					"type": "address"
				}
			],
			"name": "removeERC20Payment",
			"outputs": [],
			"stateMutability": "nonpayable",
			"type": "function"
		},
		{
			"inputs": [
				{
					"internalType": "uint256",
					"name": "_packId",
					"type": "uint256"
				}
			],
			"name": "removePack",
			"outputs": [],
			"stateMutability": "nonpayable",
			"type": "function"
		},
		{
			"inputs": [],
			"name": "renounceOwnership",
			"outputs": [],
			"stateMutability": "nonpayable",
			"type": "function"
		},
		{
			"inputs": [
				{
					"internalType": "uint256",
					"name": "_packId",
					"type": "uint256"
				},
				{
					"internalType": "uint256",
					"name": "_price",
					"type": "uint256"
				}
			],
			"name": "setNativePrice",
			"outputs": [],
			"stateMutability": "nonpayable",
			"type": "function"
		},
		{
			"inputs": [
				{
					"internalType": "address",
					"name": "newOwner",
					"type": "address"
				}
			],
			"name": "transferOwnership",
			"outputs": [],
			"stateMutability": "nonpayable",
			"type": "function"
		}
	],
	"bytecode": "0x608060405234801561001057600080fd5b5060405162001c3938038062001c39833981016040819052610031916100b8565b61003a33610068565b6001808055600380546001600160a01b0319166001600160a01b0393909316929092179091556002556100e8565b600080546001600160a01b038381166001600160a01b0319831681178455604051919092169283917f8be0079c531659141344cd1fd0a4f28419497f9722a3daafe3b4186f6b6457e09190a35050565b6000602082840312156100ca57600080fd5b81516001600160a01b03811681146100e157600080fd5b9392505050565b611b4180620000f86000396000f3fe6080604052600436106100dd5760003560e01c80639bc49e991161007f578063cb37f3b211610059578063cb37f3b214610239578063e43e81df14610259578063f2fde38b14610279578063fcfe26a31461029957600080fd5b80639bc49e99146101c5578063b84c1392146101e5578063c05b724e1461021557600080fd5b8063715018a6116100bb578063715018a6146101375780638da5cb5b1461014c5780639859ad0e146101835780639a89edb5146101a557600080fd5b80630a2d07e4146100e257806342a42e95146100f75780634c46ee1e14610117575b600080fd5b6100f56100f03660046112d3565b6102b9565b005b34801561010357600080fd5b506100f5610112366004611371565b6104d7565b34801561012357600080fd5b506100f56101323660046113a6565b61061a565b34801561014357600080fd5b506100f5610a16565b34801561015857600080fd5b506000546001600160a01b03165b6040516001600160a01b0390911681526020015b60405180910390f35b34801561018f57600080fd5b50610198610a2a565b60405161017a9190611489565b3480156101b157600080fd5b506100f56101c036600461157e565b610cec565b3480156101d157600080fd5b506100f56101e0366004611642565b610d52565b3480156101f157600080fd5b5061020561020036600461166e565b610f29565b60405161017a9493929190611687565b34801561022157600080fd5b5061022b60025481565b60405190815260200161017a565b34801561024557600080fd5b50600354610166906001600160a01b031681565b34801561026557600080fd5b506100f561027436600461166e565b610fda565b34801561028557600080fd5b506100f56102943660046116b3565b611022565b3480156102a557600080fd5b506100f56102b43660046116d5565b6110a0565b6102c16110ed565b60008681526004602052604081205490036102ef5760405163bb1d2e2560e01b815260040160405180910390fd5b60008681526004602052604081206003015490036103205760405163ade1cb4160e01b815260040160405180910390fd5b6000868152600460205260409020600301548111156103525760405163ade1cb4160e01b815260040160405180910390fd5b600086815260046020819052604082200154900361038357604051637bda68f960e11b815260040160405180910390fd5b6000868152600460209081526040808320600381015491516103af93429333936001019290910161172b565b604051602081830303815290604052805190602001209050600082600460008a8152602001908152602001600020600401546103eb91906117e4565b90508034101561040e57604051635c1c18f560e11b815260040160405180910390fd5b6000888152600460205260408120600301805485929061042f908490611801565b90915550506003546040516001600160a01b03909116903480156108fc02916000818181858888f1935050505015801561046d573d6000803e3d6000fd5b5060008881526004602052604080822090517fd36a25e9628142902ec40a93d0fe26744e4670fab03870dac86dbe476d4c97c9926104bc9233928891600101908d908d908d908d908c9061183d565b60405180910390a150506104cf60018055565b505050505050565b6104df611146565b600083815260046020526040812054900361050d5760405163bb1d2e2560e01b815260040160405180910390fd5b60008381526004602052604090206002015480156105bc5760005b6000858152600460205260409020600201548110156105ba57600085815260046020526040902060020180546001600160a01b03861691908390811061057057610570611923565b60009182526020909120600290910201546001600160a01b0316036105a857604051633bc6702360e21b815260040160405180910390fd5b806105b281611939565b915050610528565b505b506040805180820182526001600160a01b0393841681526020808201938452600095865260048152918520600290810180546001808201835591885293909620915192020180546001600160a01b0319169190931617825551910155565b6106226110ed565b6000600460008981526020019081526020016000206040518060a00160405290816000820154815260200160018201805461065c906116f7565b80601f0160208091040260200160405190810160405280929190818152602001828054610688906116f7565b80156106d55780601f106106aa576101008083540402835291602001916106d5565b820191906000526020600020905b8154815290600101906020018083116106b857829003601f168201915b5050505050815260200160028201805480602002602001604051908101604052809291908181526020016000905b8282101561074b576000848152602090819020604080518082019091526002850290910180546001600160a01b03168252600190810154828401529083529092019101610703565b505050508152602001600382015481526020016004820154815250509050806000015160000361078e5760405163bb1d2e2560e01b815260040160405180910390fd5b80606001516000036107b35760405163ade1cb4160e01b815260040160405180910390fd5b81816060015110156107d85760405163ade1cb4160e01b815260040160405180910390fd5b8060400151516000036107fe57604051637bda68f960e11b815260040160405180910390fd5b600042338360200151846060015160405160200161081f9493929190611952565b60405160208183030381529060405280519060200120905060008060005b8460400151518110156108c3578a6001600160a01b03168560400151828151811061086a5761086a611923565b6020026020010151600001516001600160a01b0316036108b157600192508460400151818151811061089e5761089e611923565b60200260200101516020015191506108c3565b806108bb81611939565b91505061083d565b50816108e257604051637347844f60e01b815260040160405180910390fd5b84846060018181516108f49190611801565b9052506003546000906001600160a01b03808d16916323b872dd9133911661091c8a876117e4565b6040516001600160e01b031960e086901b1681526001600160a01b03938416600482015292909116602483015260448201526064016020604051808303816000875af1158015610970573d6000803e3d6000fd5b505050506040513d601f19601f820116820180604052508101906109949190611998565b9050806109b4576040516307a4ced160e51b815260040160405180910390fd5b7fd36a25e9628142902ec40a93d0fe26744e4670fab03870dac86dbe476d4c97c9338c8888602001518e8e8e8e8c6040516109f7999897969594939291906119ba565b60405180910390a15050505050610a0d60018055565b50505050505050565b610a1e611146565b610a2860006111a0565b565b6060600060025467ffffffffffffffff811115610a4957610a49611568565b604051908082528060200260200182016040528015610aac57816020015b610a996040518060a0016040528060008152602001606081526020016060815260200160008152602001600081525090565b815260200190600190039081610a675790505b50905060005b600254811015610ce65760008181526004602052604090205415610cd4576000818152600460205260409020548251839083908110610af357610af3611923565b6020908102919091018101519190915260008281526004909152604090206001018054610b1f906116f7565b80601f0160208091040260200160405190810160405280929190818152602001828054610b4b906116f7565b8015610b985780601f10610b6d57610100808354040283529160200191610b98565b820191906000526020600020905b815481529060010190602001808311610b7b57829003601f168201915b5050505050828281518110610baf57610baf611923565b6020026020010151602001819052506004600082815260200190815260200160002060030154828281518110610be757610be7611923565b602002602001015160600181815250506004600082815260200190815260200160002060040154828281518110610c2057610c20611923565b6020026020010151608001818152505060046000828152602001908152602001600020600201805480602002602001604051908101604052809291908181526020016000905b82821015610cae576000848152602090819020604080518082019091526002850290910180546001600160a01b03168252600190810154828401529083529092019101610c66565b50505050828281518110610cc457610cc4611923565b6020026020010151604001819052505b80610cde81611939565b915050610ab2565b50919050565b610cf4611146565b6002546000818152600460205260409020908155600101610d158482611a4b565b506002805460009081526004602081905260408083206003018590558354835282200184905581549190610d4883611939565b9190505550505050565b610d5a611146565b6000828152600460205260408120549003610d885760405163bb1d2e2560e01b815260040160405180910390fd5b6000828152600460205260408120600201549003610db957604051637bda68f960e11b815260040160405180910390fd5b600082815260046020526040812060020154815b81811015610e3d57600085815260046020526040902060020180546001600160a01b038616919083908110610e0457610e04611923565b60009182526020909120600290910201546001600160a01b031603610e2b57809250610e3d565b80610e3581611939565b915050610dcd565b506000848152600460205260409020600201610e5a600183611801565b81548110610e6a57610e6a611923565b9060005260206000209060020201600460008681526020019081526020016000206002018381548110610e9f57610e9f611923565b600091825260208083208454600293840290910180546001600160a01b0319166001600160a01b03909216919091178155600194850154908501558783526004905260409091200190610ef29083611801565b81548110610f0257610f02611923565b60009182526020822060029091020180546001600160a01b03191681556001015550505050565b60046020526000908152604090208054600182018054919291610f4b906116f7565b80601f0160208091040260200160405190810160405280929190818152602001828054610f77906116f7565b8015610fc45780601f10610f9957610100808354040283529160200191610fc4565b820191906000526020600020905b815481529060010190602001808311610fa757829003601f168201915b5050505050908060030154908060040154905084565b610fe2611146565b60008181526004602052604081208181559061100160018301826111f0565b61100f60028301600061122a565b5060006003820181905560049091015550565b61102a611146565b6001600160a01b0381166110945760405162461bcd60e51b815260206004820152602660248201527f4f776e61626c653a206e6577206f776e657220697320746865207a65726f206160448201526564647265737360d01b60648201526084015b60405180910390fd5b61109d816111a0565b50565b6110a8611146565b60008281526004602052604081205490036110d65760405163bb1d2e2560e01b815260040160405180910390fd5b600091825260046020819052604090922090910155565b60026001540361113f5760405162461bcd60e51b815260206004820152601f60248201527f5265656e7472616e637947756172643a207265656e7472616e742063616c6c00604482015260640161108b565b6002600155565b6000546001600160a01b03163314610a285760405162461bcd60e51b815260206004820181905260248201527f4f776e61626c653a2063616c6c6572206973206e6f7420746865206f776e6572604482015260640161108b565b600080546001600160a01b038381166001600160a01b0319831681178455604051919092169283917f8be0079c531659141344cd1fd0a4f28419497f9722a3daafe3b4186f6b6457e09190a35050565b5080546111fc906116f7565b6000825580601f1061120c575050565b601f01602090049060005260206000209081019061109d919061124b565b508054600082556002029060005260206000209081019061109d9190611264565b5b80821115611260576000815560010161124c565b5090565b5b808211156112605780546001600160a01b031916815560006001820155600201611265565b60008083601f84011261129c57600080fd5b50813567ffffffffffffffff8111156112b457600080fd5b6020830191508360208285010111156112cc57600080fd5b9250929050565b600080600080600080608087890312156112ec57600080fd5b86359550602087013567ffffffffffffffff8082111561130b57600080fd5b6113178a838b0161128a565b9097509550604089013591508082111561133057600080fd5b5061133d89828a0161128a565b979a9699509497949695606090950135949350505050565b80356001600160a01b038116811461136c57600080fd5b919050565b60008060006060848603121561138657600080fd5b8335925061139660208501611355565b9150604084013590509250925092565b600080600080600080600060a0888a0312156113c157600080fd5b873596506113d160208901611355565b9550604088013567ffffffffffffffff808211156113ee57600080fd5b6113fa8b838c0161128a565b909750955060608a013591508082111561141357600080fd5b506114208a828b0161128a565b989b979a50959894979596608090950135949350505050565b60005b8381101561145457818101518382015260200161143c565b50506000910152565b60008151808452611475816020860160208601611439565b601f01601f19169290920160200192915050565b60006020808301818452808551808352604092508286019150828160051b8701018488016000805b8481101561155957603f198a8503018652825160a08151865289820151818b8801526114df8288018261145d565b838b0151888203898d01528051808352908d019350869250908c01905b8083101561152e57835180516001600160a01b031683528d01518d830152928c019260019290920191908b01906114fc565b50606084810151908901526080938401519390970192909252505094870194918701916001016114b1565b50919998505050505050505050565b634e487b7160e01b600052604160045260246000fd5b60008060006060848603121561159357600080fd5b833567ffffffffffffffff808211156115ab57600080fd5b818601915086601f8301126115bf57600080fd5b8135818111156115d1576115d1611568565b604051601f8201601f19908116603f011681019083821181831017156115f9576115f9611568565b8160405282815289602084870101111561161257600080fd5b82602086016020830137600060208483010152809750505050505060208401359150604084013590509250925092565b6000806040838503121561165557600080fd5b8235915061166560208401611355565b90509250929050565b60006020828403121561168057600080fd5b5035919050565b8481526080602082015260006116a0608083018661145d565b6040830194909452506060015292915050565b6000602082840312156116c557600080fd5b6116ce82611355565b9392505050565b600080604083850312156116e857600080fd5b50508035926020909101359150565b600181811c9082168061170b57607f821691505b602082108103610ce657634e487b7160e01b600052602260045260246000fd5b848152600060206bffffffffffffffffffffffff198660601b1681840152603460008654611758816116f7565b600182811680156117705760018114611789576117b9565b60ff1984168987015282151583028901860194506117b9565b8a6000528660002060005b848110156117af5781548b8201890152908301908801611794565b505085838a010194505b50505095815291909101979650505050505050565b634e487b7160e01b600052601160045260246000fd5b80820281158282048414176117fb576117fb6117ce565b92915050565b818103818111156117fb576117fb6117ce565b81835281816020850137506000828201602090810191909152601f909101601f19169091010190565b6001600160a01b038a8116825289166020808301919091526040820189905260e0606083015287546000918291611873816116f7565b8060e087015261010060018084166000811461189657600181146118b0576118de565b60ff1985168984015283151560051b8901830196506118de565b8e6000528560002060005b858110156118d65781548b82018601529083019087016118bb565b8a0184019750505b50505050505082810360808401526118f781888a611814565b905082810360a084015261190c818688611814565b9150508260c08301529a9950505050505050505050565b634e487b7160e01b600052603260045260246000fd5b60006001820161194b5761194b6117ce565b5060010190565b8481526bffffffffffffffffffffffff198460601b16602082015260008351611982816034850160208801611439565b6034920191820192909252605401949350505050565b6000602082840312156119aa57600080fd5b815180151581146116ce57600080fd5b6001600160a01b038a81168252891660208201526040810188905260e0606082018190526000906119ed9083018961145d565b82810360808401526118f781888a611814565b601f821115611a4657600081815260208120601f850160051c81016020861015611a275750805b601f850160051c820191505b818110156104cf57828155600101611a33565b505050565b815167ffffffffffffffff811115611a6557611a65611568565b611a7981611a7384546116f7565b84611a00565b602080601f831160018114611aae5760008415611a965750858301515b600019600386901b1c1916600185901b1785556104cf565b600085815260208120601f198616915b82811015611add57888601518255948401946001909101908401611abe565b5085821015611afb5787850151600019600388901b60f8161c191681555b5050505050600190811b0190555056fea2646970667358221220044d6f13f08e6588314a7e439dc0ffade9ab63444f87cc146ac52cf882abadbc64736f6c63430008130033",
	"linkReferences": {},
	"deployedLinkReferences": {}
}